{
  "contractName": "ArraySmartConract",
  "abi": [
    {
      "inputs": [
        {
          "internalType": "uint256",
          "name": "_id",
          "type": "uint256"
        }
      ],
      "name": "addID",
      "outputs": [],
      "stateMutability": "nonpayable",
      "type": "function"
    },
    {
      "inputs": [
        {
          "internalType": "uint256",
          "name": "_index",
          "type": "uint256"
        }
      ],
      "name": "getID",
      "outputs": [
        {
          "internalType": "uint256",
          "name": "",
          "type": "uint256"
        }
      ],
      "stateMutability": "view",
      "type": "function"
    },
    {
      "inputs": [],
      "name": "getLength",
      "outputs": [
        {
          "internalType": "uint256",
          "name": "",
          "type": "uint256"
        }
      ],
      "stateMutability": "view",
      "type": "function"
    },
    {
      "inputs": [],
      "name": "getAl",
      "outputs": [
        {
          "internalType": "uint256[]",
          "name": "",
          "type": "uint256[]"
        }
      ],
      "stateMutability": "view",
      "type": "function"
    }
  ],
  "bytecode": "0x608060405234801561001057600080fd5b50610367806100206000396000f3fe608060405234801561001057600080fd5b506004361061004c5760003560e01c80630d18e43c146100515780636d68380614610081578063be1c766b1461009d578063fe3d3781146100bb575b600080fd5b61006b600480360381019061006691906101cb565b6100d9565b6040516100789190610207565b60405180910390f35b61009b600480360381019061009691906101cb565b610100565b005b6100a561012c565b6040516100b29190610207565b60405180910390f35b6100c3610138565b6040516100d091906102e0565b60405180910390f35b60008082815481106100ee576100ed610302565b5b90600052602060002001549050919050565b600081908060018154018082558091505060019003906000526020600020016000909190919091505550565b60008080549050905090565b6060600080548060200260200160405190810160405280929190818152602001828054801561018657602002820191906000526020600020905b815481526020019060010190808311610172575b5050505050905090565b600080fd5b6000819050919050565b6101a881610195565b81146101b357600080fd5b50565b6000813590506101c58161019f565b92915050565b6000602082840312156101e1576101e0610190565b5b60006101ef848285016101b6565b91505092915050565b61020181610195565b82525050565b600060208201905061021c60008301846101f8565b92915050565b600081519050919050565b600082825260208201905092915050565b6000819050602082019050919050565b61025781610195565b82525050565b6000610269838361024e565b60208301905092915050565b6000602082019050919050565b600061028d82610222565b610297818561022d565b93506102a28361023e565b8060005b838110156102d35781516102ba888261025d565b97506102c583610275565b9250506001810190506102a6565b5085935050505092915050565b600060208201905081810360008301526102fa8184610282565b905092915050565b7f4e487b7100000000000000000000000000000000000000000000000000000000600052603260045260246000fdfea264697066735822122027320f56830572d4802a063f84234838ca2b941ea349424d447124e52c5cfdf964736f6c634300080c0033",
  "immutableReferences": {},
  "source": "// SPDX-License-Identifier: MIT\n\npragma solidity ^0.8.4;\n\ncontract ArraySmartConract{\n    uint[] ids;\n\n    function addID(uint _id) public {\n        ids.push(_id);\n    }\n\n    function getID(uint _index) public view returns (uint){\n        return ids[_index];\n    }\n\n    function getLength() public view returns (uint) {\n        return ids.length;\n    }\n\n    function getAl() public view returns(uint[] memory) {\n        return ids;\n    }\n}",
  "sourcePath": "/Users/geekysid/Documents/Tutorials/Blockchain/Projects_2/truffle/contracts/arraySmartContract.sol",
  "compiler": {
    "name": "solc",
    "version": "0.8.12+commit.f00d7308.Emscripten.clang"
  },
  "schemaVersion": "3.4.6",
  "updatedAt": "2022-05-23T20:51:40.397Z",
  "devdoc": {
    "kind": "dev",
    "methods": {},
    "version": 1
  },
  "userdoc": {
    "kind": "user",
    "methods": {},
    "version": 1
  }
}