{
  "contractName": "TestingStruct",
  "abi": [
    {
      "inputs": [],
      "stateMutability": "nonpayable",
      "type": "constructor"
    },
    {
      "inputs": [
        {
          "internalType": "uint256",
          "name": "",
          "type": "uint256"
        }
      ],
      "name": "students",
      "outputs": [
        {
          "internalType": "string",
          "name": "name",
          "type": "string"
        },
        {
          "internalType": "uint8",
          "name": "roll",
          "type": "uint8"
        }
      ],
      "stateMutability": "view",
      "type": "function",
      "constant": true
    },
    {
      "inputs": [],
      "name": "teacher",
      "outputs": [
        {
          "internalType": "address",
          "name": "",
          "type": "address"
        }
      ],
      "stateMutability": "view",
      "type": "function",
      "constant": true
    },
    {
      "inputs": [
        {
          "internalType": "string",
          "name": "_name",
          "type": "string"
        },
        {
          "internalType": "uint8",
          "name": "_roll",
          "type": "uint8"
        }
      ],
      "name": "addStudent",
      "outputs": [],
      "stateMutability": "nonpayable",
      "type": "function"
    },
    {
      "inputs": [
        {
          "internalType": "string",
          "name": "_name",
          "type": "string"
        },
        {
          "internalType": "uint8",
          "name": "_roll",
          "type": "uint8"
        }
      ],
      "name": "updateStudent",
      "outputs": [],
      "stateMutability": "nonpayable",
      "type": "function"
    },
    {
      "inputs": [
        {
          "internalType": "uint8",
          "name": "_roll",
          "type": "uint8"
        }
      ],
      "name": "removeStudent",
      "outputs": [],
      "stateMutability": "nonpayable",
      "type": "function"
    },
    {
      "inputs": [
        {
          "internalType": "uint8",
          "name": "_roll",
          "type": "uint8"
        }
      ],
      "name": "getStudentName",
      "outputs": [
        {
          "internalType": "string",
          "name": "",
          "type": "string"
        }
      ],
      "stateMutability": "view",
      "type": "function",
      "constant": true
    },
    {
      "inputs": [
        {
          "internalType": "uint8",
          "name": "_roll",
          "type": "uint8"
        }
      ],
      "name": "getIndex",
      "outputs": [
        {
          "internalType": "uint256",
          "name": "",
          "type": "uint256"
        }
      ],
      "stateMutability": "view",
      "type": "function",
      "constant": true
    },
    {
      "inputs": [],
      "name": "getStudentCount",
      "outputs": [
        {
          "internalType": "uint256",
          "name": "",
          "type": "uint256"
        }
      ],
      "stateMutability": "view",
      "type": "function",
      "constant": true
    }
  ],
  "bytecode": "0x608060405234801561001057600080fd5b5033600160006101000a81548173ffffffffffffffffffffffffffffffffffffffff021916908373ffffffffffffffffffffffffffffffffffffffff160217905550610e0a806100616000396000f3fe608060405234801561001057600080fd5b50600436106100885760003560e01c8063aef010691161005b578063aef0106914610114578063b46bff8914610144578063d46c5b3714610162578063e56afce91461017e57610088565b806306ead22e1461008d57806341e0c407146100be578063558f1dad146100dc57806362dc146b146100f8575b600080fd5b6100a760048036038101906100a2919061082a565b6101ae565b6040516100b592919061090c565b60405180910390f35b6100c6610277565b6040516100d3919061094b565b60405180910390f35b6100f660048036038101906100f19190610992565b610283565b005b610112600480360381019061010d9190610af4565b61036d565b005b61012e60048036038101906101299190610992565b610484565b60405161013b9190610b50565b60405180910390f35b61014c610549565b6040516101599190610bb3565b60405180910390f35b61017c60048036038101906101779190610af4565b61056f565b005b61019860048036038101906101939190610992565b61064b565b6040516101a5919061094b565b60405180910390f35b600081815481106101be57600080fd5b90600052602060002090600202016000915090508060000180546101e190610bfd565b80601f016020809104026020016040519081016040528092919081815260200182805461020d90610bfd565b801561025a5780601f1061022f5761010080835404028352916020019161025a565b820191906000526020600020905b81548152906001019060200180831161023d57829003601f168201915b5050505050908060010160009054906101000a900460ff16905082565b60008080549050905090565b3373ffffffffffffffffffffffffffffffffffffffff16600160009054906101000a900473ffffffffffffffffffffffffffffffffffffffff1673ffffffffffffffffffffffffffffffffffffffff1614610313576040517f08c379a000000000000000000000000000000000000000000000000000000000815260040161030a90610ca1565b60405180910390fd5b600061031e8261064b565b90506000818154811061033457610333610cc1565b5b90600052602060002090600202016000808201600061035391906106fd565b6001820160006101000a81549060ff021916905550505050565b3373ffffffffffffffffffffffffffffffffffffffff16600160009054906101000a900473ffffffffffffffffffffffffffffffffffffffff1673ffffffffffffffffffffffffffffffffffffffff16146103fd576040517f08c379a00000000000000000000000000000000000000000000000000000000081526004016103f490610ca1565b60405180910390fd5b600060405180604001604052808481526020018360ff168152509080600181540180825580915050600190039060005260206000209060020201600090919091909150600082015181600001908051906020019061045c92919061073d565b5060208201518160010160006101000a81548160ff021916908360ff16021790555050505050565b606060006104918361064b565b9050600081815481106104a7576104a6610cc1565b5b906000526020600020906002020160000180546104c390610bfd565b80601f01602080910402602001604051908101604052809291908181526020018280546104ef90610bfd565b801561053c5780601f106105115761010080835404028352916020019161053c565b820191906000526020600020905b81548152906001019060200180831161051f57829003601f168201915b5050505050915050919050565b600160009054906101000a900473ffffffffffffffffffffffffffffffffffffffff1681565b3373ffffffffffffffffffffffffffffffffffffffff16600160009054906101000a900473ffffffffffffffffffffffffffffffffffffffff1673ffffffffffffffffffffffffffffffffffffffff16146105ff576040517f08c379a00000000000000000000000000000000000000000000000000000000081526004016105f690610ca1565b60405180910390fd5b600061060a8261064b565b9050826000828154811061062157610620610cc1565b5b9060005260206000209060020201600001908051906020019061064592919061073d565b50505050565b600080600090505b6000805490508110156106bc578260ff166000828154811061067857610677610cc1565b5b906000526020600020906002020160010160009054906101000a900460ff1660ff1614156106a957809150506106f8565b80806106b490610d1f565b915050610653565b506040517f08c379a00000000000000000000000000000000000000000000000000000000081526004016106ef90610db4565b60405180910390fd5b919050565b50805461070990610bfd565b6000825580601f1061071b575061073a565b601f01602090049060005260206000209081019061073991906107c3565b5b50565b82805461074990610bfd565b90600052602060002090601f01602090048101928261076b57600085556107b2565b82601f1061078457805160ff19168380011785556107b2565b828001600101855582156107b2579182015b828111156107b1578251825591602001919060010190610796565b5b5090506107bf91906107c3565b5090565b5b808211156107dc5760008160009055506001016107c4565b5090565b6000604051905090565b600080fd5b600080fd5b6000819050919050565b610807816107f4565b811461081257600080fd5b50565b600081359050610824816107fe565b92915050565b6000602082840312156108405761083f6107ea565b5b600061084e84828501610815565b91505092915050565b600081519050919050565b600082825260208201905092915050565b60005b83811015610891578082015181840152602081019050610876565b838111156108a0576000848401525b50505050565b6000601f19601f8301169050919050565b60006108c282610857565b6108cc8185610862565b93506108dc818560208601610873565b6108e5816108a6565b840191505092915050565b600060ff82169050919050565b610906816108f0565b82525050565b6000604082019050818103600083015261092681856108b7565b905061093560208301846108fd565b9392505050565b610945816107f4565b82525050565b6000602082019050610960600083018461093c565b92915050565b61096f816108f0565b811461097a57600080fd5b50565b60008135905061098c81610966565b92915050565b6000602082840312156109a8576109a76107ea565b5b60006109b68482850161097d565b91505092915050565b600080fd5b600080fd5b7f4e487b7100000000000000000000000000000000000000000000000000000000600052604160045260246000fd5b610a01826108a6565b810181811067ffffffffffffffff82111715610a2057610a1f6109c9565b5b80604052505050565b6000610a336107e0565b9050610a3f82826109f8565b919050565b600067ffffffffffffffff821115610a5f57610a5e6109c9565b5b610a68826108a6565b9050602081019050919050565b82818337600083830152505050565b6000610a97610a9284610a44565b610a29565b905082815260208101848484011115610ab357610ab26109c4565b5b610abe848285610a75565b509392505050565b600082601f830112610adb57610ada6109bf565b5b8135610aeb848260208601610a84565b91505092915050565b60008060408385031215610b0b57610b0a6107ea565b5b600083013567ffffffffffffffff811115610b2957610b286107ef565b5b610b3585828601610ac6565b9250506020610b468582860161097d565b9150509250929050565b60006020820190508181036000830152610b6a81846108b7565b905092915050565b600073ffffffffffffffffffffffffffffffffffffffff82169050919050565b6000610b9d82610b72565b9050919050565b610bad81610b92565b82525050565b6000602082019050610bc86000830184610ba4565b92915050565b7f4e487b7100000000000000000000000000000000000000000000000000000000600052602260045260246000fd5b60006002820490506001821680610c1557607f821691505b60208210811415610c2957610c28610bce565b5b50919050565b7f4f6e6c7920746561636865722063616e2061636365737320746869732066756e60008201527f6374696f6e616c69747900000000000000000000000000000000000000000000602082015250565b6000610c8b602a83610862565b9150610c9682610c2f565b604082019050919050565b60006020820190508181036000830152610cba81610c7e565b9050919050565b7f4e487b7100000000000000000000000000000000000000000000000000000000600052603260045260246000fd5b7f4e487b7100000000000000000000000000000000000000000000000000000000600052601160045260246000fd5b6000610d2a826107f4565b91507fffffffffffffffffffffffffffffffffffffffffffffffffffffffffffffffff821415610d5d57610d5c610cf0565b5b600182019050919050565b7f53747564656e7420646f6573206e6f7420657869737473212100000000000000600082015250565b6000610d9e601983610862565b9150610da982610d68565b602082019050919050565b60006020820190508181036000830152610dcd81610d91565b905091905056fea2646970667358221220ac7782e93399856abe0166ba801f08e7e543fafb5f3c802e563e31447b985a3d64736f6c634300080c0033",
  "immutableReferences": {},
  "source": "// SPDX-License-Identifier: MIT\n\npragma solidity ^0.8.4;\n\ncontract TestingStruct {\n    struct Student {\n        string name;\n        uint8 roll;\n    }\n\n    Student[] public students;\n    address public teacher;\n\n    constructor () {\n        teacher = msg.sender;\n    }\n\n    // allowing only teacher to access certain functionality\n    modifier isTeacher() {\n        require(teacher == msg.sender, \"Only teacher can access this functionality\");\n        _;\n    }\n\n    // to add student\n    function addStudent(string memory _name, uint8 _roll) public isTeacher {\n        students.push(Student ({\n            name: _name,\n            roll: _roll\n        }));\n    }\n\n    // to update student name\n    function updateStudent(string memory _name, uint8 _roll) public isTeacher {\n        uint256 _index = getIndex(_roll);\n        students[_index].name = _name;\n    }\n\n    // to remove student\n    function removeStudent(uint8 _roll) public isTeacher {\n        uint256 _index = getIndex(_roll);\n        delete students[_index];\n    }\n\n    // to get student name\n    function getStudentName(uint8 _roll) public view returns (string memory) {\n        uint256 _index = getIndex(_roll);\n        return students[_index].name;\n    }\n\n    // to get index of student in array\n    function getIndex(uint8 _roll) public view returns (uint) {\n        for (uint256 i=0; i<students.length; i++) {\n            if (students[i].roll == _roll) {\n                return i;\n            }\n        }\n        revert(\"Student does not exists!!\");\n    }\n\n    // to get total number of student\n    function getStudentCount() public view returns (uint) {\n        return students.length;\n    }\n\n}",
  "sourcePath": "/Users/geekysid/Documents/Tutorials/Blockchain/Projects_2/truffle/contracts/TestingStruct.sol",
  "compiler": {
    "name": "solc",
    "version": "0.8.12+commit.f00d7308.Emscripten.clang"
  },
  "schemaVersion": "3.4.6",
  "updatedAt": "2022-05-24T19:15:56.555Z",
  "networkType": "ethereum",
  "devdoc": {
    "kind": "dev",
    "methods": {},
    "version": 1
  },
  "userdoc": {
    "kind": "user",
    "methods": {},
    "version": 1
  }
}